:100000000C94A7020C94EE020C94EE020C94EE02F7
:100010000C94EE020C94EE020C94EE020C94EE02A0
:100020000C94EE020C94EE020C9465220C9437238F
:100030000C94891D0C94EE020C94EE020C94EE02CA
:100040000C94EE020C94EE020C94EE020C94EE0270
:100050000C94EE020C94D61D0C94EE020C94EE025D
:100060000C94EE020C94EE020C94EE020C94EE0250
:100070000C94EE020C94EE020C94EE020C94EE0240
:100080000C94EE020C94EE020C94EE020C94EE0230
:100090000C94EE020C94EE020C94EE020C94EE0220
:1000A0000C94EE020C94EE020C94EE02AD0DB00D29
:1000B000B80DBD0DC20DC70DCC0DD10DD60DDB0D8C
:1000C000E00DE50DE70DEA0DED0DF00DF30DF60D6C
:1000D000F80DFD0DFD13FD132F142F147C14A31523
:1000E000A315A3159A143315441544153416341664
:1000F000461646163D16461646164616341634164D
:100100004216461646164216A423CB23C324CB23FD
:10011000C32417243A24C3249124A02429001400C2
:100120001A000800150017001C0018000C0012002F
:1001300013002A002B0004001600070009000A0023
:100140000B000D000E000F0033002800E1001D0021
:100150001B000600190005001100100036003700D2
:100160003800E500E00000000000E200015102510B
:100170002C000000015100000000E400A900140060
:100180004B00C25CC05C17001C0018005200C35C2E
:10019000C45C4C00AA004A004E00070018002D0065
:1001A0002E00500051004F003400005CE100C55C9F
:1001B000C65CC75CC85C2F003000C95CCA5C3700F5
:1001C0003100E500E30000000000E2000100010052
:1001D0002C000000010000000000005C3A003B0021
:1001E0003C003D003E003F00400041004200430013
:1001F00044004500A8001E001F002000210022002E
:1002000023002400250026002700280039001E02B4
:100210001F022002210222022302240225022602BA
:100220002702E500E00000000000E20001000100FC
:100230002C000000010000000000E40032190A0058
:10024000047F3F1F643214643214783C1E1E140A6B
:10025000052223252628292A2C2D2F303233353606
:10026000383A3B3D3E4042434547494A4C4E505147
:10027000535557595A5C5E6062646668696B6D6F6E
:1002800071737577797B7D7F81838587898A8C8E71
:1002900090929496989A9C9E9FA1A3A5A7A8AAAC79
:1002A000AEAFB1B3B4B6B8B9BBBCBEBFC1C2C3C5B3
:1002B000C6C7C9CACBCCCDCED0D1D2D2D3D4D5D655
:1002C000D7D7D8D9D9DADADBDBDBDCDCDCDCDCDD88
:1002D000DDDDDDDCDCDCDCDCDBDBDBDADAD9D9D86C
:1002E000D7D7D6D5D4D3D2D2D1D0CECDCCCBCAC904
:1002F000C7C6C5C3C2C1BFBEBCBBB9B8B6B4B3B133
:10030000AFAEACAAA8A7A5A3A19F9E9C9A989694CD
:1003100092908E8C8A89878583817F7D7B797775A2
:1003200073716F6D6B6968666462605E5C5A595781
:10033000555351504E4C4A4947454342403E3D3B40
:100340003A3836353332302F2D2C2A2928262523CA
:1003500022FFAA7F554000010101010101010101B5
:100360000202020202020202020303030303030366
:100370000304040404040404050505050506060633
:100380000606070707070708080808090909090AF0
:100390000A0A0B0B0B0C0C0C0D0D0D0E0E0E0F0F95
:1003A0000F10101111111212131314141515161623
:1003B0001717181819191A1A1B1B1C1D1D1E1E1F92
:1003C0002020212222232424252626272829292AE1
:1003D0002B2C2D2D2E2F3031323233343536373809
:1003E000393A3B3C3D3E3F40414243444546474805
:1003F000494A4C4D4E4F50515354555658595A5BDB
:100400005D5E5F616264656668696B6C6D6F70727A
:10041000737577787A7B7D7E8082838587888A8CE6
:100420008E8F91939596989A9C9EA0A2A3A5A7A91A
:10043000ABADAFB1B3B5B7BABCBEC0C2C4C6C9CB11
:10044000CDCFD1D4D6D8DBDDDFE2E4E7E9EBEEF0C7
:10045000F3F5F8FAFDFF0403300000000C0362001E
:10046000610062007900760000001E0345007900FB
:10047000650020004F006800200044006500730004
:10048000690067006E00730000000403090409029C
:100490003B00020100A0FA09040000010301010071
:1004A0000921110100012240000705810308000A0B
:1004B00009040100010300000009211101000122CB
:1004C00032000705820320000A120110010000001B
:1004D00008EDFE000001000102030105010980A1F1
:1004E00001850319012AB700150126B7009501758A
:1004F000108100C0050C0901A101850419012AA081
:1005000002150126A002950175108100C0050109A0
:1005100006A101050719E029E715002501950875D1
:100520000181029501750881010507190029FF1550
:100530000026FF00950675088100050819012905A8
:10054000950575019102950175039101C000112473
:100550001FBECFEFDAE0DEBFCDBF04B603FE27C07B
:100560008091E6029091E702A091E802B091E90241
:100570008730904BA740B04BD1F41092E602109216
:10058000E7021092E8021092E90214BE84B7877F56
:1005900084BF0FB6F894A89580916000886180931D
:1005A0006000109260000FBEE0E0F8E3099511E0F2
:1005B000A0E0B1E0EAECFCE402C005900D92A03CA2
:1005C000B107D9F722E0A0ECB1E001C01D92A63E30
:1005D000B207E1F70E94941F0C9463260C9400006C
:1005E00081E0089581E008950C94F20208950C943E
:1005F000F6021F93CF93DF9300D000D01F92CDB7A8
:10060000DEB749835A836B8330911E0289819A81B8
:10061000311114C0662359F0222349F00E94F01AC8
:10062000182F682F89819A810E94991A03C00E940D
:10063000C41A182F69817A81812F04C00E94F01A90
:1006400069817A810F900F900F900F900F90DF913A
:10065000CF911F910C94B503FC01262F408151814D
:100660006281738184810C94F902CF93DF93EC0152
:1006700060E00E942C03BE01DF91CF910C94F70241
:100680000E94151C811102C00E94BE1C0E94780F9E
:100690000C94A5050C94A10508950C944C0381E0DD
:1006A00008950C944F03CF93C82F0E944D038C2FB5
:1006B0000E945103CF91089508950E9422160E942E
:1006C0005C032FEF84E39CE0215080409040E1F7F1
:1006D00000C000000C94FC1D0F931F93CF93DF9379
:1006E000EC0161E00E942C038C01BE010E94F40227
:1006F0008823A9F1BE01C8010E94E10E882379F187
:10070000BE01C8010E943B10882349F1BE01C80107
:100710000E947C10882319F1BE01C8010E94A71114
:100720008823E9F0BE01C8010E94960D8823B9F024
:100730008A81882369F001158CE5180731F00E3D98
:100740001C4531F40E94BE1C0AC00E945D0307C014
:10075000CE01DF91CF911F910F910C94F00280E0B8
:10076000DF91CF911F910F91089520E3829FC001E7
:100770001124FC012CE0729FE00DF11D1124E60F05
:10078000F11DEE0FFF1FE45EFE4F859194910895D9
:10079000CF93DF930E94B5030E94B904EC01811549
:1007A0009245F0F5C11581E5D80708F0A9C0C83E0B
:1007B000D10528F5C03ED10508F0D7C0C83AD1050B
:1007C00078F4C53AD10508F074C0C130D10509F4F8
:1007D000CCC008F4C8C0C430D10508F0C6C0C3C03E
:1007E000CF3BD10508F0BFC0C85AD0E0CC0FDD1F09
:1007F000CD5DDE4F0990D881C02DD464B6C0C1153F
:1008000090E5D90708F060C0C11520E4D20708F0D0
:1008100058C0CE019A9581159F4108F4A6C0A3C087
:10082000C11586E5D80718F5C11595E5D90708F073
:1008300080C0C11524E5D20708F076C09E01237060
:1008400033278C2F86958695C115D34508F05DC05A
:10085000C1E0D0E002C0CC0FDD1F2A95E2F720E214
:10086000829FC0011124C82BD92BDC687EC0C11522
:100870002AE5D20778F4C11589E5D80708F063C0E6
:10088000C11598E5D90708F46EC0DC2FCC27C06FDE
:10089000D06A6BC0CE0190568115904208F063C0BB
:1008A0008D2F8F710E944D05DD27D0628F71D82B5F
:1008B0005CC0C55AD0E0CF5ADE4FC881D0E0D064CA
:1008C00054C0DF70D06A51C0CE0174E09695879510
:1008D0007A95E1F783709C2F937021E030E002C09D
:1008E000220F331F9A95E2F73C68382BCF70C695DC
:1008F000C69580E2C89FE0011124C22BD32B35C0DE
:10090000DC2FCC27C16FD06A30C0C1E0D0E002C07C
:10091000CC0FDD1F2A95E2F720E2829FC00111244F
:10092000C82BD92BDA6821C0DC2FCC27C46FD06A42
:100930001CC08C2F0E944D058F71C82FD0E0DC2F7A
:10094000CC27D06212C08C2F8F700E944D0594E08E
:10095000D695C7959A95E1F7CF70D0E0DC2FCC27DC
:10096000D069C82B02C0C0E0D0E0CE01DF91CF91AA
:1009700008958238910569F1B0F48133910509F445
:100980006DC048F48932910509F463C08A3291053B
:1009900009F469C008958533910509F455C0893378
:1009A0009105B9F00895833E910569F138F4803ED0
:1009B0009105B1F0823E910509F10895863E9105B9
:1009C000A9F1873E9105B9F1843E910509F064C013
:1009D00023C02091D70220FD4FC021FD4DC00895B6
:1009E0008091D70280FD44C08091D80280FF44C02E
:1009F0008091D70284FD42C083EE4DC08091D70222
:100A000082FF38C0F5CF8091D70282FD33C080913C
:100A1000D80280FD31C0ECCF8091D80281FF32C076
:100A20008091D70284FD2AC087EE35C08091D7021D
:100A300083FF26C0F5CF8091D70283FD21C080912E
:100A4000D80281FD1FC0ECCF8091D70285FD1CC06C
:100A50001DC08091D70285FD19C016C08091D702B4
:100A600086FD16C017C08091D70286FD13C010C046
:100A700089E311C082EE0FC080EE0DC080E00BC094
:100A800086EE09C084EE07C089E205C085E303C095
:100A90008AE201C081E390E008959091D70292FF2D
:100AA0000DC0282F2871283019F4877F846006C074
:100AB000282F2471243011F48B7F886093FF0DC0A0
:100AC000282F2871283119F4877E846106C0282FC9
:100AD0002471243111F48B7E88612091D80220FF8B
:100AE0000DC0382F3871383019F4877F816006C007
:100AF000382F3171313011F48E7F886021FF0DC0A5
:100B0000282F2871283119F4877E816106C0282F8B
:100B10002171213111F48E7E886194FD877E0895C4
:100B2000E82FF0E0EE0FFF1FEF55FD4F8081918120
:100B30000895089580EA8A95F1F7089508950C9430
:100B40009E050C949F050C949E050C94A305CF93D1
:100B5000DF93A0E6B1E044E651E061E070E08D9102
:100B6000E82FE295EF70F0E021A18F70EB0102C059
:100B7000CC0FDD1F8A95E2F7CE019C2F9095922332
:100B800091A392A1892B82A34A175B0741F7A4E5A1
:100B9000B1E041E050E08D91E82FE295EF70F0E098
:100BA00021A18F70BA0102C0660F771F8A95E2F704
:100BB000CB01962F9095922391A392A1892B82A38A
:100BC00071E0A036B70739F710929A021092990295
:100BD0001092A2021092A10210929C0210929B020B
:100BE0001092A4021092A30210929E0210929D02F3
:100BF0001092A6021092A5021092A00210929F02DB
:100C00001092A8021092A70284E00E94A806DF9129
:100C1000CF910C9440032F923F924F925F926F922C
:100C20007F928F929F92AF92BF92CF92DF92EF927C
:100C3000FF920F931F93CF93DF9380E6C82E81E03E
:100C4000D82E09E912E091EA492E92E0592E312C72
:100C500088248394912C5801D8016D907C90119731
:100C60001D921C92F60181916F01C82FC295CF7021
:100C7000D0E099A18F70740101C0EE0C8A95EAF75B
:100C8000892F8E2989A38AA12E2C209482218AA3C0
:100C90000E949A05E4E5F1E020E030E06191A62FA2
:100CA000A295AF70B0E090968C91D8014D915C9177
:100CB00090E06F7002C0959587956A95E2F780FD88
:100CC00008C0C401022E02C0880F991F0A94E2F7DF
:100CD00002C080E090E0482B592BD8014D935C93E3
:100CE0002F5F3F4F2C303105C9F689A1282229A258
:100CF0008AA1E82AEAA20E5F1F4F81E0F501208158
:100D000031812615370509F480E0382A401651064E
:100D100009F0A1CF232D44E061EA72E089E992E075
:100D20000E94A9060E944A03832DDF91CF911F9153
:100D30000F91FF90EF90DF90CF90BF90AF909F907A
:100D40008F907F906F905F904F903F902F9008957D
:100D50000895FF920F931F93CF93DF93F82E092FDF
:100D6000162FD72FC42F222349F081E08093C20190
:100D70000E94BB1D9093C1018093C0018091C2016C
:100D80008823D9F08091C0019091C1010E94C71DB4
:100D9000069798F0EF2DF02FA12FBD2F80E090E067
:100DA0004C2F50E08417950734F4219131912D9305
:100DB0003D930196F7CF1092C201DF91CF911F9121
:100DC0000F91FF900895EF92FF920F931F93CF938F
:100DD000DF93F62E472FE82FF0E0711106C0EA5A94
:100DE000FC4F6491762F862F72C0272F30E0EA5A8D
:100DF000FC4FE4910E2F10E056E0659FC0011124D6
:100E0000CFEFD0E0BE010E9421255BEA5603C0016E
:100E1000579F900D11248F0D911D8F0D911D982FAF
:100E2000990F890F7E01E21AF30AE09ED001E19E3C
:100E3000B00DF09EB00D1124489FA0011124452F44
:100E400055277E01E41AF50AE09EA001E19E500DAF
:100E5000F09E500D11247E01E81AF108E29EC001B7
:100E6000E39E900DF29E900D1124892F9927C81BA7
:100E7000D90BC09FC001C19F900DD09F900D112430
:100E80006230710591F048F461157105E1F061304F
:100E90007105A9F48B2F752F19C06430710561F0AD
:100EA00038F06630710579F00AC0892F7B2F0EC0AB
:100EB0008E2F7B2FE52F0AC08E2F792F02C0852F12
:100EC0007E2FEB2F03C08B2F7E2FE92F6E2FDF910C
:100ED000CF911F910F91FF90EF9008950895CF93B8
:100EE000DF93762FE901682F842F0E94E306798330
:100EF00068838A83DF91CF9108958091A902282F7A
:100F0000269530E02115310519F48170826005C005
:100F10002B32310524F0817084658093A9020895F5
:100F200088E090E00C94FC25CF92DF92EF92FF9244
:100F30006B017C010E947D07B701A60188E090E06B
:100F4000FF90EF90DF90CF900C941A26E9EAF2E040
:100F500083E0808311828FEF828383831482608198
:100F60007181828193810C9494078091A90280FF02
:100F700002C08695089580E008958091AD02833087
:100F800018F48F5F8093AD026091A9027091AA025C
:100F90008091AB029091AC020C9494078091AD02C9
:100FA000882319F081508093AD026091A90270915D
:100FB000AA028091AB029091AC020C94940770E06D
:100FC0000C94C40F609107018091A90280FF0AC0B0
:100FD0008091060123E0829FC001112482559D4F1C
:100FE0000C94DF078091080190910901891780F71F
:100FF000E82FF0E09F01220F331FE20FF31FE255AD
:10100000FD4F1182108212828F5FF0CF9091A90262
:1010100090FF16C09091080120910901921770F479
:10102000E92FF0E0DF01AA0FBB1FEA0FFB1FE2551B
:10103000FD4F8183608342839F5FF0CF0C94E20772
:101040000895CF93DF9300D01F92CDB7DEB7909174
:10105000A90290FF0AC09E012F5F3F4F0E946F07B9
:101060004B8169818A810E9406080F900F900F9032
:10107000DF91CF910895CF93DF93EC01EC81F0E005
:10108000EF5AFD4F4491E9EAF2E0628181810E94CA
:1010900021088C818F5F8C83DF91CF910895CF934E
:1010A000DF93EC01E9EAF2E0438162818C810E94E6
:1010B00021088C818F5F8C83DF91CF9108950F93EE
:1010C0001F93CF93DF9300D01F92CDB7DEB78C0173
:1010D0008091C30181110AC09E012F5F3F4F4FEFE6
:1010E0006FEF0E946F078A818093C301F8018481AA
:1010F000813051F028F0823061F44091C3010AC080
:101100008091C30140E007C06091C30140E080E0EE
:1011100003C040E080E060E00E940608F80184819E
:1011200090E0019663E070E00E94352584830F9083
:101130000F900F90DF91CF911F910F910895AF9273
:10114000BF92CF92DF92EF92FF920F931F93CF93B4
:10115000DF9300D01F92CDB7DEB7182FF62E042FE5
:10116000E22E9091A90290FF6DC0E92FE695AE2F77
:10117000B0E0AC59BE4F8C91809309029E7F9230B3
:1011800061F49E012F5F3F4F812F0E946F074B81BB
:1011900069818A810E94060843C0823019F4009157
:1011A000AC023EC0863019F41091AA0239C08930D1
:1011B000D9F38931A9F5E9518E2F8170D82EE695A2
:1011C000F0E0EF5AFC4FA590B490C12CBB24609185
:1011D0000A01C61618F52C2D30E0A29EC001A39E70
:1011E000900DB29E900D112470E00E942125812F58
:1011F000D11002C0860F01C0861B90910801290FF3
:10120000311DA901440F551F240F351F22553D4F95
:10121000402F6F2D0E946F07C394D9CF0E94E20721
:101220001093AA02F092AB020093AC02EE2051F0B0
:101230006091A9027091AA028091AB029091AC02D8
:101240000E9494070F900F900F90DF91CF911F9104
:101250000F91FF90EF90DF90CF90BF90AF900895E7
:10126000E9EAF2E09181282F4381628188E0890FC9
:101270000C949F0881E00C943009E9EAF2E0918136
:10128000282F4381628188EF890F0C949F0881E0A9
:101290000C943D09E9EAF2E0628128E0620F08F46B
:1012A0006FEF282F438181810C949F0881E00C947B
:1012B0004A09E9EAF2E0628128E0621B08F460E092
:1012C000282F438181810C949F0881E00C94590957
:1012D000E9EAF2E0438128E0420F08F44FEF282FBB
:1012E000628181810C949F0881E00C946809E9EA8D
:1012F000F2E0438128E0421B08F440E0282F62819D
:1013000081810C949F0881E00C94770920E00C9473
:101310009F08FF920F931F93CF93DF93EC01F12C63
:101320000FEF10E060910A01F616F0F480910801C9
:101330002F2D30E0280F311DC901880F991F280F6C
:10134000391F22553D4F70E0C8010E943525962F68
:101350008C814091AC026091AB02F99E800D11240A
:101360000E946F07F394DECF0E94E2079A818C817E
:1013700090FF02C08F5F01C081508C83DF91CF91BD
:101380001F910F91FF900895AF92BF92CF92DF927D
:10139000EF92FF920F931F93CF93DF93FC01828113
:1013A00080FF02C00FEF01C001E010E04CE0A42E6E
:1013B00080910A01181708F043C080910801C12EDE
:1013C000D12CE601C80FD11DCE01880F991FC80F7F
:1013D000D91FC255DD4F198218821A8234E0E32EDC
:1013E000F12CB12C8091C5018B0D8D302CF06A2D24
:1013F0000E941325892F05C087FF03C090910A0121
:10140000890F082E000C990BC816D90691F480910B
:10141000AC028E9DA0018F9D500D112455954795CE
:10142000559547959E016091AB028091AA020E945A
:101430006F07B00EF1E0EF1AF108A1F61F5FB8CF09
:101440000E94E2078091C501013031F4811102C090
:1014500080910A01815007C090E0019660910A01D5
:1014600070E00E9435258093C501DF91CF911F91D7
:101470000F91FF90EF90DF90CF90BF90AF900895C5
:10148000CF938091080190910901891770F4E82F9A
:10149000F0E09F01220F331FE20FF31FE255FD4FD3
:1014A0001182108212828F5FF0CFC0E060910A013A
:1014B000C617C0F5EC2FF0E070E0CF010E94352593
:1014C00020910801820F2091C401022E000C330BE1
:1014D00090E0E217F307CCF020910501022E000CFA
:1014E000330B2E173F078CF09C01220F331F820F06
:1014F000931F9C0122553D4F4091AC026091AB027D
:101500008091AA020E946F070BC0FC01EE0FFF1F23
:101510008E0F9F1FFC01E255FD4F11821082128237
:10152000CF5FC4CF0E94E207209104018091C401E3
:10153000820F8093C40190910501920F9093050151
:1015400019165CF4082E000C990B40910A0150E02A
:1015500041505109841795071CF0219520930401EF
:10156000CF9108950F931F93CF93DF938C01FC01CC
:101570008481958101968170992795838483C0E049
:10158000D5E580910A01C81700F5809108012C2F3C
:1015900030E0280F311DC901880F991F280F391F0E
:1015A00022553D4F4C2F4695F80184819581840F3B
:1015B000911D81704091AC026091AB028D9F802D96
:1015C00011240E946F07CF5FDCCFDF91CF911F9175
:1015D0000F910C94E2070F931F93CF93DF93EC01CD
:1015E00000E010E080910A01282F30E00217130775
:1015F00024F5909108019801290F311DA901440F8C
:10160000551F240F351F22553D4F869590E04C8184
:10161000081719071CF4442331F002C0411103C01C
:101620004091AC0201C040E06091AB028091AA02FF
:101630000E946F070F5F1F4FD5CF0E94E2078C817A
:1016400090E00196817099278C83DF91CF911F9153
:101650000F9108958F929F92AF92BF92CF92DF9297
:10166000EF92FF920F931F93CF93DF93FC01B28011
:10167000948081E0848300E015E05BE4A52E88245B
:101680008394EE24EA94F12C7BE4C72ED12C809134
:101690000A01081708F08FC0C02FD0E01C9FF0018E
:1016A0001D9FF00D1124EA53FE4F911003C01382C9
:1016B000128267C02381222389F121502383348140
:1016C000332319F09A2D921B01C0922F8091AC0206
:1016D0001C9FF0011D9FF00D1124EA53FE4F899FBE
:1016E000C0011124B6010E9421256283211104C08A
:1016F000332311F01482A38222E02B1508F441C099
:101700001C9FF0011D9FF00D1124EA53FE4F8091A4
:10171000AA0280838091AB02818333C00E94D725C7
:101720008230914074F582E08B1530F40E94D72509
:10173000B7010E94352502C08091AA021C9FF001CA
:101740001D9FF00D1124EA53FE4F808322E02B15DC
:1017500058F40E94D7252091AB022695622F70E0A5
:101760000E943525820F02C08091AB021C9FF001C0
:101770001D9FF00D1124EA53FE4F81831282A38234
:101780008482809108019E01280F311DC901880FB4
:10179000991F280F391F22553D4F1C9FF0011D9F97
:1017A000F00D1124EA53FE4F4281618180810E9435
:1017B0006F070F5F6CCFDF91CF911F910F91FF905B
:1017C000EF90DF90CF90BF90AF909F908F900C9450
:1017D000E207E9EAF2E080818E7F80836081718197
:1017E000828193810E94940710920A022FEF80E772
:1017F00092E0215080409040E1F700C000000C943E
:10180000E207E9EAF2E080818E7F808310920A028B
:101810002FEF80E792E0215080409040E1F700C038
:1018200000000C94E2076091A902669570E04BE01D
:1018300050E08BE091E00E94E725892B19F481E0CC
:1018400080930A020E94BB1D9093030280930202C0
:1018500008959091A90290FF35C09170811102C046
:10186000926006C08B3210F0946502C0880F982BEE
:101870009093A902662351F06091A9027091AA0287
:101880008091AB029091AC020E9494076091A902F2
:10189000669570E04BE050E08BE091E00E94E72518
:1018A000892B19F010920A0202C00E94130C81E0E9
:1018B000809305024091AC026091AB028091AA0234
:1018C0000C9486090895682F9091A902969581E05D
:1018D000890F8B3208F081E00C94290C81E00C9484
:1018E000630C682F9091A90296958FEF890F09F4E8
:1018F0008AE20C94290C81E00C94710C61E00C9448
:10190000290CE9EAF2E080818160808386950C945D
:101910007E0C8091A90280FD0C94E90B0C94810C43
:1019200060E00C94290C8091080281112EC00E9465
:10193000151C811104C00E94BE1C0E94A6070E94B3
:1019400090076093A9027093AA028093AB029093D0
:10195000AC026E7F61F40E94A6070E94900760931C
:10196000A9027093AA028093AB029093AC020E94EA
:101970007D0710920A028091A90280FF03C086951C
:101980000E94900C81E0809308020895E9EAF2E059
:1019900080818160808386950C94900C10920A025D
:1019A00008950F931F93CF93DF9380910A028823AA
:1019B00009F49CC080910902E091A902E695E81B18
:1019C000E0930402823049F4F0E0E35BFD4FE491E0
:1019D000CE2FD0E00BE318E059C0863049F4F0E098
:1019E000E65BFD4FE491CE2FD0E00FE418E04EC04F
:1019F000893051F4E695F0E0E95BFD4FE491CE2F9C
:101A0000D0E009E819E042C08F3051F4E695F0E0EB
:101A1000EC5BFD4FE491CE2FD0E004EC19E036C032
:101A2000853149F4F0E0EF5BFD4FE491CE2FD0E03B
:101A300000E41AE02BC08831D9F0833239F4EFE3A7
:101A4000F2E0C591D4910FE518E020C08432A9F0EE
:101A50008532C1F48E2F63E00E940725E92FF0E064
:101A6000E45CFD4FE491CE2FD0E00AE21BE00EC013
:101A7000C8EED3E002EB1AE009C0C4EFD1E00BEEF0
:101A80001AE004C0C0EDD7E00EE617E08091050231
:101A9000882389F0109205020E94BB1D9E012095AB
:101AA0003095820F931F909303028093020210924D
:101AB00007021092060280910202909103020E9496
:101AC000C71D8C179D0790F0E0910202F091030270
:101AD000CE0FDF1FD0930302C093020282E092E098
:101AE000F801DF91CF911F910F910994DF91CF9170
:101AF0001F910F910895882311F0FA0101C0FB0195
:101B00000994CF93DF93C82FD62F0E94B5078C1767
:101B100040F00E94B5078D1720F4DF91CF910C940F
:101B20006E0C8C2FDF91CF910C947E0C0F931F9332
:101B3000CF93FB01C281CC2309F463C08C010E94C6
:101B4000711B8272F801E25CFC45E431F10508F09A
:101B500059C0EA5AFF4F0C946B250E94890C06C0AD
:101B60004BE75CE06EE67CE00E947B0DC0E04AC083
:101B70004EE65CE06BE77CE0F7CF47E459E06AE3D0
:101B800079E0F2CF4AE359E067E479E0EDCF45E64A
:101B900059E066E579E0E8CF46E559E065E679E0A9
:101BA000E3CF43E859E064E779E0DECF44E759E06A
:101BB00063E879E0D9CF4EEC57E06DEB77E0D4CF16
:101BC0004DEB57E06EEC77E0CFCF81E017C065E0DA
:101BD00082E010C068E086E00DC06EE089E00AC0D7
:101BE00064E18FE007C067E185E104C088E106C0D9
:101BF00062E289E10E94810DB9CF83E20E947E0CEE
:101C0000B5CFC1E08C2FCF911F910F9108950E9405
:101C1000151C811102C00E94BE1C0E94461C8093AC
:101C2000D202282F26952695269530E024303105BE
:101C300024F0877088618093D2028091D20280FF65
:101C400004C086958695869501C080E00C94160F99
:101C50002091D202822F869586958695482F50E056
:101C60004330510554F48F5F982F990F990F990FB6
:101C7000822F8770892B8093D2028091D20281605B
:101C80008093D2020E944A1C8091D202869586954A
:101C900086950C94160F8091D202982F9695969562
:101CA0009695A1F0915E990F990F990F8770892BE6
:101CB0008093D202887F91E009F490E08091D20273
:101CC00090FB80F98093D2020E944A1C8091D2023C
:101CD0008695869586950C94160F8091D20280FD8C
:101CE00013C081608093D202813019F489E080931F
:101CF000D2028091D2020E944A1C8091D202869523
:101D0000869586950C94160F08958091D20280FFD7
:101D100008C08E7F8093D2020E944A1C80E00C94FF
:101D2000160F08958091D20280FD0C94850E0C94BC
:101D30006D0E9091D202892F8695869586958F5F3C
:101D40008F719770843038F4880F880F880F892B33
:101D50008093D20202C09093D2028091D202887FF7
:101D600091E009F490E08091D20290FB80F9809399
:101D7000D2020E944A1C8091D20286958695869551
:101D80000C94160F843008F083E09091D202977083
:101D9000282F220F220F220F922B9093D202987F8E
:101DA00021E009F420E09091D20220FB90F9909379
:101DB000D2020C94160F0E94C20E8091D2020C9493
:101DC0004A1C9C01FB018281882349F12D3BFCE5E3
:101DD0003F07C9F040F42B3BECE53E0769F02C3B94
:101DE0003C4561F008952F3B9CE5390791F070F078
:101DF000203C3C4589F0089583E001C080E00E94CA
:101E0000DB0E80E008950E944B0EFBCF0E94280E4F
:101E1000F8CF0E94920EF5CF0E94990EF2CF81E08A
:101E20000895269A2E9808952E980895CF92DF92BD
:101E3000EF92FF92CF93C82F843050F4811109C0E4
:101E4000809180008F7D809380000E94140F06C0D7
:101E5000C3E0809180008062809380002C2F30E06E
:101E6000AFEFBFEF0E94712523E030E040E050E08B
:101E70000E944925C9012C3764E1360728F469E03E
:101E800070E00E94212529C0DA01C9018A50974DCE
:101E9000AF4FBF4F6627782F892F9A2F25EF38E253
:101EA00041E050E00E94492569017A01CA01B90167
:101EB0000E94F7249B01AC01C701B6010E94F724E0
:101EC000BB27A92F982F872F009721E0A207B105E4
:101ED00011F0BC0102C06FEF7FEF70938B00609335
:101EE0008A00CF91FF90EF90DF90CF9008950895F2
:101EF0000E94110F82E28093800089E1809381002B
:101F00008FEF9FEF90938700809386000C94070ECD
:101F100054B1E42FEF7021E030E001C0220FEA95C8
:101F2000EAF7352F322B34B942954F70E42FF0E0A9
:101F300032A1422F4095342342A1242B4FB7F8946D
:101F4000FC01CB01880F991F680F791F6E0F7F1F4F
:101F5000E617F70789F0819198E025B9000000C0E5
:101F600087FF35B9880F000000C000C000C035B938
:101F700000C09A9591F7ECCF4FBF87EC90E00197A6
:101F8000F1F700C00000089547E30C94880F0F9309
:101F90001F93CF93DF93C62FD42F122FFC01828182
:101FA0008823C9F060930D020E94BB1D90930C0220
:101FB00080930B0280E28C0F883008F057C0C77006
:101FC00081E001C0880FCA95EAF7DF91CF911F9198
:101FD0000F910C94B91380910D02681330C0809159
:101FE0000B0290910C020E94C71D883C910538F5A8
:101FF00000E20D0FCD17B9F080E28C0F883040F46D
:10200000C77081E001C0880FCA95EAF70E94C0132B
:10201000083028F581E09D2F977001C0880F9A95B0
:10202000EAF70E94B913812F0E94A6130830F0F43A
:10203000D77081E001C0880FDA95EAF70AC080E224
:102040008C0F883098F4C77081E001C0880FCA9562
:10205000EAF7DF91CF911F910F910C94C013812F5C
:10206000DF91CF911F910F910C94A613DF91CF9127
:102070001F910F9108959C01CB01233F4CE534073C
:10208000F9F078F4283DFCE53F07B9F0293D4CE52F
:10209000340711F1273D3C4531F526E241EE61EE72
:1020A0001EC0253FFCE53F0799F070F0263F3C45F8
:1020B000D1F427E245EE66EE12C027E245EE0EC0EF
:1020C00026E241EE60EE0BC027E245EE64EE07C06B
:1020D00026E241EE62EE03C028E241E065EE0E9496
:1020E000C70F80E00895FC018281882319F01092C7
:1020F0000D02089581E00895CF93DF93EC01FB0179
:102100008281882309F41FC1C230FCE5DF0708F48F
:102110001BC1C6319CE5D90738F09E012A5F3C45BA
:102120002930310508F010C10E94281C9093D80274
:102130008093D702C031ECE5DE0709F4C3C008F094
:1021400041C0C8308CE5D80709F49AC0F0F4C43017
:10215000ECE5DE0709F487C068F4C2308CE5D807E7
:1021600009F477C0C330DC4509F0E3C08091D702A1
:10217000826076C0C630ECE5DE0709F46EC008F078
:102180007BC08091D70288606BC0CC308CE5D807CB
:1021900009F485C068F4CA30ECE5DE0709F474C0C0
:1021A00008F079C00E9422168091D702806858C03A
:1021B000CE308CE5D80709F476C008F07FC0809156
:1021C000D7028BC0CB3FECE5DE0709F44FC018F512
:1021D000C3318CE5D80709F47DC078F4C131ECE552
:1021E000DE0709F473C0C231DC4509F0A2C00E94C9
:1021F00022168091D7028F7733C0C5318CE5D8077E
:1022000009F472C008F486C0CA3FDC4509F091C0E9
:102210008091D8023EC0CF3FFCE5DF0709F45FC0E4
:1022200058F4CD3F9CE5D90709F444C008F43FC0F9
:102230008091D80282602DC0C130FDE5DF0709F42E
:1022400075C008F45DC0C230DD4509F072C080E0A1
:102250006EC08091D702816003C08091D7028061F7
:102260008093D70266C08091D70211C08091D802B6
:1022700082608093D8025DC08091D7028062F0CFE7
:102280008091D7028064ECCF8091D702886084600F
:10229000E7CF8160EECF8091D7028E7FE1CF809132
:1022A000D7028D7FDDCF8091D702877FD9CF8091F4
:1022B000D80218C08091D8028D7FDBCF8091D702E1
:1022C0008F7ECECF8091D7028F7DCACF8091D702EB
:1022D0008F7BC6CF8091D702877F8B7FC1CF8091C4
:1022E000D8028D7F8E7FC5CF8091D70282FB2227B7
:1022F00020F991E0922790FB82F990FB83F9B0CF0F
:102300008091D802982F909591708E7F892B90FBA9
:1023100081F9AFCF0E9422168091D70287FB222736
:1023200020F991E0922790FB87F99ACF81E00E94F3
:10233000C01C8091D7029091D8020E94391C0E9443
:10234000221680E001C081E0DF91CF910895CF9304
:10235000DF9386319C4541F5EB010E94711B982F5C
:102360008A812091160130911701882379F09A7A99
:1023700081E009F480E080930E02911102C069E2CD
:1023800001C065E3C9010E94071D0AC080910E02C9
:10239000811102C069E201C065E3C9010E94091D03
:1023A0000E94B21B80E001C081E0DF91CF910895CF
:1023B00090931402809313020895E0911302F09118
:1023C0001402309721F00190F081E02D099480E013
:1023D0000895E0911302F0911402309721F00280E9
:1023E000F381E02D09940895209111023091120299
:1023F0002817390771F09093120280931102E0912F
:102400001302F0911402309721F00680F781E02D3D
:102410000994089520910F0230911002281739076E
:1024200071F09093100280930F02E0911302F091EB
:102430001402309721F00084F185E02D099408956D
:1024400085B7806885BF85B7806885BF0895089582
:102450000C9427120C9428120C9427120C94271217
:102460000E9420120E942C120C942A1281E00895DE
:102470000C9436120E94B21D0E94A7050E94201ED5
:102480000E94070E0E94930C0C942E127F928F9242
:102490009F92AF92BF92CF92DF92EF92FF920F93F3
:1024A0001F93CF93DF93CDB7DEB72A970FB6F8947B
:1024B000DEBF0FBECDBF0E940B060E9438128111F5
:1024C00011C08FEF89838A831B820E94BB1D8160AC
:1024D000782F9D838C8349815A816B818D810E94E5
:1024E000F8124FC046E1A42E42E0B42E00E010E006
:1024F000702E802F0E9490056C01F50181909190C3
:102500005F01882699268114910431F40F5F1F4FD3
:102510000430110569F7D5CF80918A0281FD0E94B0
:10252000990580E0EE24E394F12C94012E213F21C3
:10253000232B09F18E837F82CE20DF2081E0CD28FE
:1025400009F480E088870E94BB1D8160782F9A87FC
:1025500089874E815F8168858A850E94F812000F05
:10256000111FF801EA5EFD4F80819181E826F9266E
:10257000F182E08206C08F5FEE0CFF1C8C30A9F662
:10258000C5CF0E94D10C0E94770F0E94DD1190915F
:1025900015028917C9F00E94DD11809315022A9651
:1025A0000FB6F894DEBF0FBECDBFDF91CF911F9164
:1025B0000F91FF90EF90DF90CF90BF90AF909F90E2
:1025C0008F907F900C9453032A960FB6F894DEBF39
:1025D0000FBECDBFDF91CF911F910F91FF90EF9074
:1025E000DF90CF90BF90AF909F908F907F90089595
:1025F000CF93DF93CDB7DEB72B970FB6F894DEBF3E
:102600000FBECDBF4F83588769877A878B87DE01DE
:10261000119686E0FD0111928A95E9F785E0FE01A9
:10262000379601900D928A95E1F749815A816B8125
:102630007C818D819E810E94DB182B960FB6F894C9
:10264000DEBF0FBECDBFDF91CF910895FC01808129
:1026500091810E94321B0895CF93882309F448C0CA
:10266000C82F8CEF8C0F813AD0F46C2F809116011B
:10267000909117010E94D11C882349F06C2F809102
:102680001601909117010E94091D0E94B21B6C2F28
:1026900080911601909117010E94071D0CC080E2E5
:1026A0008C0F883058F4C77081E001C0880FCA953C
:1026B000EAF70E94741BCF910C94B21BEBE5EC0F70
:1026C000E33040F4F0E0E354FE4F808190E0CF919E
:1026D0000C94F411C85AC73158F4EC2FF0E0EE0F07
:1026E000FF1FE157FE4F80819181CF910C940A1218
:1026F000CF910895882349F1682F8CEF860F813A96
:1027000038F480911601909117010E94091D0CC0A8
:1027100080E2860F883050F4677081E001C0880F36
:102720006A95EAF70E947A1B0C94B21B8BE5860F20
:10273000833020F480E090E00C94F411685A673103
:1027400020F480E090E00C940A120895CF93C82FF3
:102750000E942C13C93349F42FEF87EE93E02150E8
:1027600080409040E1F700C000008C2FCF910C9486
:102770007A13882321F00E94741B0C94B21B0895D5
:10278000882321F00E947A1B0C94B21B0895CF92EB
:10279000DF92EF92FF920F931F93CF93DF937C0111
:1027A000D62FC72FFC01058102950F7012811111E0
:1027B0000E94911B0E946A1B882379F0112369F003
:1027C00080E28D0F883048F082E00E94FC1B0E945E
:1027D0006A1B91E0D82ED92601C0D12CCC2EC294F0
:1027E0008FE0C8228C2D90E08C30910508F0ABC1B1
:1027F000FC01E659FF4F0C946B258C2F807FCF7026
:10280000882311F0C295C07F112399F0CC2309F4DD
:1028100086C180E28D0F883010F0D11104C08C2F5A
:102820000E94741B03C08C2F0E94841B0E94B21B49
:1028300076C18D2F0E947A13CC2309F484C180E2E3
:102840008D0F883010F0D11104C08C2F0E947A1B9C
:1028500003C08C2F0E948A1B0E94B21B74C18C2F54
:10286000807FCF70803211F0C295C07FDD2319F0D8
:10287000D130C9F022C0112371F0002341F00130A2
:1028800031F40E94971B8C2B0E949F1B5CC10E94FD
:10289000971B8C2B1DC0002319F0013009F453C184
:1028A0000E94A81B25C0112321F0063008F04BC15F
:1028B0000EC0053008F047C11BC0112361F0002392
:1028C00031F0F701858180FF2AC18F7085838C2FBD
:1028D0000E94B91338C1002359F0D93309F030C12F
:1028E000FFEF07EE13E0F15000401040E1F726C182
:1028F0008C2F0E94C01327C18C2F869586958370DC
:1029000019F0813061F01FC1112321F08D2F9C2F10
:10291000937002C080E090E00E94F4111CC111236A
:1029200021F08D2F9C2F937002C080E090E00E94D8
:102930000A1211C18C2F837009F047C0111107C111
:102940002D2F229526952770220F220F6D2F6F7045
:10295000862F90E0A0E0B0E0022E04C0880F991FFF
:10296000AA1FBB1F0A94D2F7D4FF10C04FE050E05B
:1029700060E070E004C0440F551F661F771F2A9562
:10298000D2F7409550956095709503C040E050E0B7
:10299000BA01C695C695C3708A019B01082B192BF5
:1029A0002A2B3B2BC901B801C23049F058F4C13081
:1029B00019F00E94AF19CBC00E949D19C8C00E9497
:1029C000C119C5C00E949B19C2C0112319F08C2FD8
:1029D000817001C08695882309F4B9C02D2F2295F6
:1029E00026952770220F220F6D2F6F70862F90E093
:1029F000A0E0B0E0022E04C0880F991FAA1FBB1FE1
:102A00000A94D2F7D4FF10C04FE050E060E070E0CD
:102A100004C0440F551F661F771F2A95D2F74095B3
:102A200050956095709503C040E050E0BA01C6959E
:102A3000C695C3708A019B01082B192B2A2B3B2BAF
:102A4000C901B801C23049F058F4C13019F00E94F0
:102A5000741A7DC00E94621A7AC00E94861A77C0DA
:102A60000E94D51974C0CF70112339F08C2F0E94A9
:102A7000FB198D2F0E94B9136AC08D2F0E94C013BD
:102A80008C2F0E941C1A63C0D23F01F128F4D03F62
:102A900041F0D13FA1F03FC0D33FF9F0D43F39F12D
:102AA0003AC0112341F0053008F04DC08C2F8F71D2
:102AB0000E94411A48C0063008F045C0F7CF1123E4
:102AC00039F08C2F8F710E94FB193DC01123C9F37F
:102AD0008C2F8F710E941C1A36C0112329F08C2F65
:102AE0008F710E94E6192FC00E94E1192CC011239A
:102AF00049F0CF718C2F0E94FB1963E08C2F0E944C
:102B0000E71B21C081E00E94FC1B0230E0F082E064
:102B10000E94FC1B18C0112331F0002391F28D2F6D
:102B20000E942C1310C0002399F2D93349F41FEFEF
:102B300027EE33E0115020403040E1F700C00000A4
:102B40008D2F0E947A1388EF8C0D843020F40E9420
:102B5000DD110E945303DD20C9F00E94661B80FD39
:102B600015C0F70112820E94601B0E94FB19C70169
:102B70000E94E7150E94601BDF91CF911F910F917A
:102B8000FF90EF90DF90CF900C941C1ADF91CF91C3
:102B90001F910F91FF90EF90DF90CF9008950F93CA
:102BA0001F93CF93DF93EC01688179818A810E9422
:102BB0003D1B8C010E94981A0E948919B801CE0110
:102BC0000E94C713DF91CF911F910F910895CF936A
:102BD000DF93FC019081818123813481232B31F0AB
:102BE0008F3F31F481E09F3F19F403C081E001C0C1
:102BF00080E080FD0EC0EF01CF010E946C038823AE
:102C000041F0CE010E94CF15CE01DF91CF910C94FF
:102C10003503DF91CF9108950E94911B0E94941B70
:102C20000E94B21B80E090E00E94F41180E090E0EE
:102C30000C940A1280911601909117010E940B1DAD
:102C40000C940C160E94811B0C941A16E92FE29525
:102C5000EF704E2F50E0FA013297EE30F105B0F4EC
:102C6000EA58FF4F0C946B25803F91F018F4883E92
:102C700068F40EC0843F51F40BC0883E48F0813F99
:102C800029F406C093FB882780F9089580E0089511
:102C900081E008950E94321B0E9426160895CF936A
:102CA000DF9300D000D01F92CDB7DEB70F900F900A
:102CB0000F900F900F90DF91CF910895CF93DF93F6
:102CC00000D000D000D0CDB7DEB726960FB6F8946E
:102CD000DEBF0FBECDBFDF91CF9108951F93CF937D
:102CE000DF93C0911F0216E080912002C81799F06F
:102CF000D0E01C9FF0011D9FF00D1124EF5DFD4FF2
:102D00004081518162817381848195810E945E1628
:102D10002196C770E9CFDF91CF911F91089540911F
:102D2000510250915202609153027091540280916D
:102D30005502909156020C945E160F931F93CF93F9
:102D4000DF938091560282958F7009F05DC080916B
:102D50005302882309F458C080911F021091200269
:102D60006091510270915202C0915402D09155026B
:102D700091E06F3F09F090E0292F06E0811709F4F8
:102D800043C0209721F07F3F21F030E003C031E0C5
:102D900001C0322F90E030FD34C0089FF001099F40
:102DA000F00D1124DF01AF5DBD4F11963C911197DD
:102DB000371327C03C91361324C012963C911297CA
:102DC00031111FC013964D915C9114974C1B5D0BF4
:102DD000483C5105B0F4809156028F708061809319
:102DE0005602EA5DFD4F80818F708061808381E5AE
:102DF00092E00E94E715DF91CF911F910F910C9403
:102E00006E1601968770BACFDF91CF911F910F9107
:102E100008959F92AF92BF92CF92DF92EF92FF926E
:102E20000F931F93CF93DF93CDB7DEB761970FB6A4
:102E3000F894DEBF0FBECDBF8C0185E0F801DE0146
:102E40001D9601900D928A95E1F7F801408151811C
:102E5000E28090915102609152022091540230918F
:102E600055022115310531F06F3F31F481E09F3F6C
:102E700019F403C081E001C080E0F82FF1709F2EAB
:102E800080FD46C1F801A380B48081E5C82E82E0B0
:102E9000D82EF0905302F501E21BF30BFF2009F44A
:102EA000DFC080915602E83CF10508F09BC0282F56
:102EB000207F09F052C0561313C0491311C0FE2CD5
:102EC000E1100EC08F708061809356020E948F16B1
:102ED000C6010E94E71580915602F801858358C10A
:102EE000AB2831F05F3F31F481E04F3F19F403C06C
:102EF00081E001C080E080FD03C081E08E2502C03A
:102F000080E090E0F82FF170FF2E80FF1CC08091D0
:102F10001F022091200236E0821709F417C190E0C9
:102F2000389FF001399FF00D1124EF5DFD4F618155
:102F3000561306C06081461303C06281E61203C0C7
:102F400001968770E9CFFE2CEE2009F421C1809113
:102F500056028160809356025AC0561306C0491328
:102F600004C0E11002C0F8019FC04D875E878D85C7
:102F70009E850E944A16882379F1EE2069F12091FE
:102F80005602822F82958F7090E0029774F08091A4
:102F900051029091520298878F831986BB86AA8628
:102FA0002C87CE0107960E94E71586E0F801A1E57F
:102FB000B2E001900D928A95E1F70E949D160E9461
:102FC0008F160DC0561729F14D875E878D859E851A
:102FD0000E944A1681112CC0C8010E94E715FF24E7
:102FE000F394D6C0282F207F69F77A2DB98AA88A52
:102FF0006E2D89890E944F1681E592E00E94E715A7
:1030000086E0F60111928A95E9F70E948F16F12C5D
:10301000BFC04913D9CFE110D7CFF8018583C801CC
:103020000E94E71586E0F60111928A95E9F7B0C093
:10303000EE2091F220915602822F82958F7090E0BF
:1030400002970CF4B2CF80915102909152029A8370
:1030500089831B82BD82AC822E83CE010196A3CFD1
:10306000E83CF10508F047C0FE2CEE2009F4B4CF8F
:10307000561330C049132EC02091560220FD21C0A6
:10308000822F82958F70482F50E041155105C9F06D
:10309000F80125834F30510541F08F5F982F9295AD
:1030A000907F822F8F70892B8583C8010E94E7153E
:1030B00086E0F801A1E5B2E001900D928A95E1F772
:1030C00042C086E0F801A1E5B2E001900D928A9538
:1030D000E1F75EC04D875E878D859E850E944A160A
:1030E000811163CF80915602816080935602C8019E
:1030F0000E94E7154DC07A2DB98AA88A6E2D89895C
:103100000E944F1686E0F60111928A95E9F71BC0DE
:10311000EE2009F461CF4D875E878D859E850E94E4
:103120004A16F82E882309F457CF86E0F801A1E566
:10313000B2E001900D928A95E1F781E592E00E945C
:1031400026130E949D160E948F1622C04D875E870F
:103150008D859E850E94321B292F22952F7022304B
:1031600028F49F7039F0811105C00BC0243028F479
:103170009F7049F4805E883020F0C8010E94E715F6
:103180009F2CF92C05C0F8019581907F99F7F9CF14
:103190008F2D61960FB6F894DEBF0FBECDBFDF91C5
:1031A000CF911F910F91FF90EF90DF90CF90BF9044
:1031B000AF909F9008951F93CF93DF93CDB7DEB765
:1031C0002C970FB6F894DEBF0FBECDBF4F83588744
:1031D00069877A878B879C87CE0107960E9409179B
:1031E0008823D1F09F8188852A853B85232B31F068
:1031F0008F3F31F481E09F3F19F403C081E001C0AB
:1032000080E080FD47C04F81588569857A858B8530
:103210009C850E945E163EC086E0FE013796DE0168
:10322000119601900D928A95E1F7FF81E8856A85F4
:103230007B856115710531F0EF3F31F481E0FF3F8F
:1032400019F403C081E001C080E080FD23C020911B
:10325000200230E0C90101968770992740911F0232
:1032600050E084179507F1F1F983EA837D836C833D
:1032700096E0929FD001939FB00D1124AF5DBD4F9A
:10328000FE01319601900D929A95E1F7809320020C
:103290000E946E1616E080911F02909120028917FD
:1032A00071F1189FC00111248F5D9D4F0E94091775
:1032B000882329F1E0911F021E9FF0011124EF5D88
:1032C000FD4F4081518162817381848195810E948B
:1032D0005E1680911F0290E0019687709927809377
:1032E0001F02D9CF0E9422161092200210921F02B4
:1032F000E1E5F2E086E0DF011D928A95E9F72C9680
:103300000FB6F894DEBF0FBECDBFDF91CF911F91F6
:103310000895089508950C948A190C948B190E94AD
:103320008D196093790270937A0280937B02909357
:103330007C020C940C160C948F190F931F93009120
:10334000790210917A0220917B0230917C02602BED
:10335000712B822B932B1F910F910C948F190F932C
:103360001F930091790210917A0220917B02309193
:103370007C0260237123822393231F910F910C946D
:103380008F190F931F930091790210917A02209167
:103390007B0230917C0260277127822793271F913F
:1033A0000F910C948F190C948A190E94D319609371
:1033B00075027093760280937702909378020C9452
:1033C0000C1660E070E0CB010C94D5190F931F939D
:1033D00041E050E060E070E08A019B0104C0000F12
:1033E000111F221F331F8A95D2F7C901B8011F91FF
:1033F0000F910C94D5190F931F9341E050E060E0BA
:1034000070E004C0440F551F661F771F8A95D2F7DE
:103410008091750290917602A0917702B091780226
:103420008A019B01082B192B2A2B3B2BC901B801C0
:103430001F910F910C94D5190F931F9341E050E009
:1034400060E070E004C0440F551F661F771F8A9527
:10345000D2F7409550956095709580917502909146
:103460007602A0917702B09178028A019B0108232D
:1034700019232A233B23C901B8011F910F910C94F2
:10348000D5190F931F9341E050E060E070E004C055
:10349000440F551F661F771F8A95D2F780917502DA
:1034A00090917602A0917702B09178028A019B01F7
:1034B000082719272A273B27C901B8011F910F9117
:1034C0000C94D5190F931F930091750210917602F9
:1034D0002091770230917802602B712B822B932BF5
:1034E0001F910F910C94D5190F931F9300917502A2
:1034F0001091760220917702309178026023712337
:10350000822393231F910F910C94D5190F931F932E
:103510000091750210917602209177023091780225
:1035200060277127822793271F910F910C94D5193B
:1035300008952CE0929F800D1124E82FE695E695E2
:10354000E695877051E001C0550F8A95EAF785E04E
:10355000E89FF0011124E95AFD4F20E030E070E0CF
:103560004081CB01022E02C0969587950A94E2F71E
:103570008170819584278523842781932F5F3F4F16
:103580002530310569F708952CE0929F800D1124B4
:10359000682F669566956695982F977085E0689F69
:1035A000B001112440E050E080E0FB01E40FF51F82
:1035B000E95AFD4F208130E0092E02C0369527954B
:1035C0000A94E2F721703327042E01C0220F0A94D7
:1035D000EAF7822B4F5F5F4F4530510531F7089571
:1035E000BF92CF92DF92EF92FF920F931F93CF93F0
:1035F000DF938C01C0907502D0907602E090770244
:10360000F09078028091790290917A02A0917B02E9
:10361000B0917C02C82AD92AEA2AFB2ACFE1D0E05D
:10362000D701C6010C2E04C0B695A795979587952E
:103630000A94D2F780FD04C0219790F7B12C07C0FF
:10364000BC2EB8018C2F0E94C8030197A9F38B2DC3
:10365000DF91CF911F910F91FF90EF90DF90CF906E
:10366000BF900895CF93DF93EC010E94F01ABE0142
:103670000E94C803DF91CF9108951F93CF93DF93EA
:10368000EB0190911E02992321F0CB010E94321B85
:1036900013C0882349F0CB010E94F01A182F682F1D
:1036A000CE010E94991A04C0CB010E94C41A182F9F
:1036B000BE01812F0E94C803DF91CF911F91089511
:1036C00080917D02859585958595089580917D02EF
:1036D0008770089590917D02977081E009F480E0F1
:1036E000089580918902089590918902892B809391
:1036F0008902089580959091890289238093890297
:10370000089510928902089590918802892B8093E0
:103710008802089580959091880289238093880279
:10372000089510928802089510928702089580915A
:103730007E02089508950C949A1B0C949B1B909103
:103740007E02981721F080937E020C949D1B0895B1
:1037500080917E02882329F010927E0280E00C94F2
:103760009D1B0895E0911601F09117018091890247
:103770008083E0911601F091170190818091880279
:10378000892B8083E0911601F0911701908180913F
:103790008702892B808380917E02882381F0E091CB
:1037A0001601F09117019081892B80838091160179
:1037B000909117010E94C51C81110E94A81B809145
:1037C0001601909117010C94E9110C949A1B98E042
:1037D000899F90011124262B20937D020E94FB19C2
:1037E00080917D028595859585950C94E51B1092B9
:1037F0007D0280E00C94E51B20917D028095822360
:1038000080937D02982F977079F430E0482F082E2E
:10381000000C550B2417350739F08595859585954E
:103820000E941C1A0C94F71B089580E090E00E94FF
:10383000022621E08C3E9E4F09F020E0822F089561
:1038400082E090E00C94F42583E090E00C94F42561
:10385000CF9384E090E00E94F425C82F81E290E0AD
:103860000E94F4252C2F30E0A901582BCA01CF91DA
:103870000895CF93C92F682F84E090E00E94082616
:103880006C2F81E290E0CF910C94082686E090E0C6
:103890000C94F425682F86E090E00C940826AB0188
:1038A000BC018FE090E00C941A26AB01BC0183E1CF
:1038B00090E00C941A2660E070E0CB010C94551C4B
:1038C00060E070E0CB010E944F1C0C945B1C6CEE1E
:1038D0007EEF80E090E00E94262660E082E090E0AB
:1038E0000E94082660E083E090E00E940826109283
:1038F000790210927A0210927B0210927C0260E0B0
:1039000084E090E00E94082660E081E290E00E945E
:10391000082660E085E090E00E94082660E086E0EE
:1039200090E00E9408266FEF87E090E00E94082652
:1039300040E050E0BA0188E090E00E941A2660E082
:103940008DE090E00E94082640E050E0BA0188E156
:1039500090E00E941A2660E087E190E00E9408262D
:1039600040E050E0BA018CE190E00E941A2660E04D
:1039700080E290E00E9408260C94601C0C94671C66
:10398000682F8EE090E00C940826FC01329697E0B8
:1039900080E0915029F021912223D9F38F5FF9CF54
:1039A0000895662349F0FC0132960896219162172A
:1039B00029F0E817F907D1F780E0089581E008952C
:1039C0009C01FC0132969FEF80E04191461789F0FF
:1039D0009F3F19F4411101C0982F8F5F8630A9F7DE
:1039E0009F3F39F0F901E90FF11D97FDFA956283C8
:1039F000089508959C012A5F3F4FFC0142814613C0
:103A000001C01282019682179307B9F708950C94AA
:103A1000E01C0C94FA1C029626E0FC0111922A95F7
:103A2000E9F7089508950C94121D0C94121DCF937C
:103A30000E94151D0E940B060E94131DC0E08C2FD2
:103A40000E949005892B29F4CF5FC430C1F780E034
:103A500001C081E0CF9108950C94121D0C942C1D8F
:103A60000E942E1D8091DD02843009F43CC010922A
:103A70008B0220E488E190E00FB6F894A89580933B
:103A800060000FBE2093600080E00E94160F80E06F
:103A90000E9453030E94CE0C80918C0281110AC0B7
:103AA00081E080938C028091A902817080938D02C5
:103AB0000E94010C0E942E1D83B7817F846083BF0A
:103AC00083B7816083BF7894889583B78E7F83BFE7
:103AD0000FB6F894A895809160008861809360008B
:103AE000109260000FBE08950C94121D0E942216C1
:103AF0000E94070E0E94DD110E94530310928C0257
:103B000080918D0281110E94C60C0E94130C0C94AE
:103B1000741D1F920F920FB60F9211248F939F93D3
:103B2000AF93BF9380918B02811113C08091D30218
:103B30009091D402A091D502B091D6024196A11DD8
:103B4000B11D8093D3029093D402A093D502B09379
:103B5000D602BF91AF919F918F910F900FBE0F90A2
:103B60001F90189582E084BD93E095BD9AEF97BDB4
:103B700080936E0008952FB7F8948091D3029091AE
:103B8000D402A091D502B091D6022FBF08959C0116
:103B90004FB7F8948091D3029091D402A091D502AE
:103BA000B091D6024FBF821B930B089578941F9259
:103BB0000F920FB60F9211248F939F93AF93BF93E1
:103BC0008091D3029091D402A091D502B091D602F7
:103BD0000196A11DB11D8093D3029093D402A093AE
:103BE000D502B093D602BF91AF919F918F910F9064
:103BF0000FBE0F901F90189581E08093E00080E247
:103C00008093D8001092C9008FE19EE40197F1F7EC
:103C100000C0000087E090EBDC018093E602909307
:103C2000E702A093E802B093E9029CE088E10FB6B6
:103C3000F894A895809360000FBE90936000FFCF2A
:103C40000E94151C811102C00E94BE1C0E94201CF3
:103C500080938A020E94281C9093D8028093D702F6
:103C60000E94241C682F70E080E090E00C949B1967
:103C70008091960208950895CF93DF9300D01F920C
:103C8000CDB7DEB79091DD02943019F589837B833F
:103C90006A8382E08093E9008FEF9091E800815081
:103CA00095FD06C095ED9A95F1F700008111F5CFCD
:103CB0008091E80085FF0DC040E050E063E070E0D7
:103CC000CE0101960E9459208091E8008E77809362
:103CD000E8000F900F900F90DF91CF910895CF9350
:103CE000DF93EC010E943C20823011F0843031F4EB
:103CF000BE0184E0DF91CF910C943C1EDF91CF9107
:103D00000895BC0183E00C943C1ECF93DF93EC013B
:103D10000E943C20823011F0843039F581E080939C
:103D2000E9008FEF9091E800815095FD06C095ED78
:103D30009A95F1F700008111F5CF8091E80085FF99
:103D400014C040E050E068E070E0CE010E945920CD
:103D50008091E8008E778093E80088E0FE01AEE86D
:103D6000B2E001900D928A95E1F7DF91CF9108952D
:103D70008091DC02811109C00E94EA210E94472241
:103D80008091E20084608093E20008951092DC024A
:103D90000895089508950C94761D42E061EC81E049
:103DA0000E94632142E261EC82E00C9463218091E5
:103DB000DF02833009F460C030F4813071F082306A
:103DC00009F499C008958A3009F485C08B3009F44C
:103DD0006BC0893009F0A7C020C08091DE02813A13
:103DE00009F0A1C08091E800877F8093E80080916E
:103DF000E2029091E302892B21F468E08EE892E0E0
:103E000003C060E080E090E070E00E94A420809118
:103E1000E8008B778093E80008958091DE0281327C
:103E200009F081C08091E2029091E302029708F0CC
:103E30007AC08091E800877F8093E8008091E80055
:103E400082FD05C08091DD028111F8CF6CC0209108
:103E5000F3008091F20090E0922B029729F4809178
:103E6000F1008B7F813021F48091F10080939602E4
:103E70008091E8008B7753C08091DE02813A09F08F
:103E800052C08091E2029091E302892B09F04BC06D
:103E90008091E800877F8093E8008091E80080FFB0
:103EA000FCCF8091220136C08091DE028132D9F5AB
:103EB0008091E2029091E302892BA9F58091E800BC
:103EC000877F8093E8000E9498218091E002809390
:103ED00022010C9422168091DE02813221F580911C
:103EE000E800877F8093E8000E9498218091E1029A
:103EF0008093970208958091DE02813AA1F4809127
:103F0000E800877F8093E8008091E80080FFFCCF85
:103F1000809197028093F1008091E8008E778093E2
:103F2000E8000C949821089584B7877F84BF0FB66A
:103F3000F894A89580916000886180936000109249
:103F400060000FBE90E080E80FB6F89480936100A7
:103F5000909361000FBE0E9430120E94EA210E94DD
:103F600047228091E20084608093E20078940E946E
:103F7000DC240E943A1288E191E00E94D8118091DD
:103F8000DD02853069F40E94301D8091DB028823B8
:103F9000B1F30E94171D882391F30E944320EFCFB5
:103FA0000E944612ECCF0C94D51F292F33272330C3
:103FB0003105C9F060F42130310581F0223031053E
:103FC00009F04AC08BE390E02EE834E049C021328A
:103FD000310511F12232310579F13EC082E190E0E4
:103FE00029EC34E03DC099278130910561F040F023
:103FF0008230910559F0039779F5E6E5F4E008C0C1
:10400000EAE8F4E005C0EAE6F4E002C0ECE5F4E03A
:10401000849190E09F0124C06115710541F06130E9
:104020007105D1F489E090E029EB34E019C089E012
:1040300090E020EA34E014C06115710541F0613070
:10404000710551F482E390E02BED34E009C080E487
:1040500090E02DE035E004C080E090E020E030E02A
:10406000FA013183208308958091DD02843011F0BC
:1040700081E0089582E0089580919802811102C044
:104080000C943420089580E189BD82E189BD09B492
:1040900000FEFDCF8091D8008F7D8093D800809165
:1040A000E00082608093E0008091E00081FDFCCF21
:1040B0000895CF92DF92EF92FF920F931F93CF93C9
:1040C000DF93EC018B017A010E94B721811133C08B
:1040D000E114F10439F0F70180819181081B190B7B
:1040E000C80FD91FC12CD12C0115110519F18091D0
:1040F000E80085FD16C08091E8008E778093E80087
:10410000E114F10449F0F70180819181C80ED91EB4
:10411000D182C08285E00FC00E94B721882321F39D
:104120000AC089918093F10001501109FFEFCF1A65
:10413000DF0ADACF80E0DF91CF911F910F91FF90DE
:10414000EF90DF90CF9008952091E4023091E50246
:104150002617370748F06115710539F42091E800FA
:104160002E772093E80001C0B901FC0120E0611521
:10417000710579F18091DD028823F1F18530F1F14B
:104180008091E80083FD3CC08091E80082FD2EC054
:104190008091E80080FFEBCF2091F3008091F20046
:1041A00090E0922B6115710551F08830910538F43B
:1041B00021912093F100615071090196F3CF21E024
:1041C000089709F020E08091E8008E778093E8005E
:1041D000CECF2111CFCF0AC08091DD02882361F0BC
:1041E000853061F08091E80083FD0AC08091E8008D
:1041F00082FFF2CF80E0089582E0089583E0089581
:1042000081E008952091E4023091E50226173707F6
:1042100048F06115710539F42091E8002E7720935C
:10422000E80001C0B901FC0120E06115710591F1C0
:104230008091DD02882309F440C0853009F43FC035
:104240008091E80083FD3DC08091E80082FD2FC091
:104250008091E80080FFE9CF2091F3008091F20087
:1042600090E0922B6115710559F08830910540F46A
:1042700024912093F1003196615071090196F2CF9B
:1042800021E0089709F020E08091E8008E77809384
:10429000E800CBCF2111CCCF0AC08091DD0288236A
:1042A00061F0853061F08091E80083FD0AC0809163
:1042B000E80082FFF2CF80E0089582E0089583E075
:1042C000089581E00895982F973068F59093E9005C
:1042D000981739F07091EC002091ED005091F000AA
:1042E00003C0242F762F50E021FD02C09F5FECCF4A
:1042F0003091EB003E7F3093EB003091ED003D7F3D
:104300003093ED003091EB0031603093EB0070930F
:10431000EC002093ED005093F0002091EE0027FD7B
:10432000E5CF80E008958F708093E90081E00895E3
:104330008091DE0287FF11C08091E80082FD05C0F8
:104340008091DD028111F8CF11C08091E8008B7758
:104350000BC08091DD02882349F08091E80080FF46
:10436000F8CF8091E8008E778093E800089520913F
:10437000E4003091E50095E64091EC00842F8170D7
:1043800040FF23C08091E80080FD1DC08091DD02C8
:10439000882399F0853099F08091EB0085FD11C05C
:1043A0004091E4005091E5002417350729F391501E
:1043B00011F09A01E1CF84E0089582E0089583E04E
:1043C000089581E0089580E008954091E80042FF5B
:1043D000DDCF08950E9458220E946022E0EEF0E0B6
:1043E000808181608083E8EDF0E080818F77808339
:1043F00019BCA7EDB0E08C918E7F8C9380818F7E6D
:1044000080831092DC0208950F931F93CF93DF9364
:104410000E9458220E946022C8EDD0E088818F77E8
:10442000888388818068888388818F7D888319BC90
:104430001092DD021092D9021092DB021092DA0281
:1044400000EE10E0F80180818B7F8083888181609D
:10445000888342E060E080E00E946321E1EEF0E0CA
:1044600080818E7F8083E2EEF0E0808181608083B6
:10447000808188608083F80180818E7F808388813D
:1044800080618883DF91CF911F910F910895E8EDAE
:10449000F0E080818F7E8083E7EDF0E080818160B5
:1044A000808384E082BF81E08093DC020C9404224C
:1044B000E8EDF0E080818E7F80831092E200089525
:1044C0001092DA001092E10008951F920F920FB639
:1044D0000F9211242F933F934F935F936F937F938A
:1044E0008F939F93AF93BF93EF93FF938091E100DE
:1044F00082FF0BC08091E20082FF07C08091E10043
:104500008B7F8093E1000E94DB248091DA0080FFA2
:104510001FC08091D80080FF1BC08091DA008E7F81
:104520008093DA008091D90080FF0DC080E189BDC1
:1045300082E189BD09B400FEFDCF81E08093DD02F8
:104540000E94B81E05C019BC1092DD020E94C61E52
:104550008091E10080FF19C08091E20080FF15C0CA
:104560008091E2008E7F8093E2008091E200806182
:104570008093E2008091D80080628093D80019BCBB
:1045800085E08093DD020E94CA1E8091E10084FFD5
:1045900030C08091E20084FF2CC080E189BD82E1BF
:1045A00089BD09B400FEFDCF8091D8008F7D809336
:1045B000D8008091E1008F7E8093E1008091E2003D
:1045C0008F7E8093E2008091E20081608093E20020
:1045D0008091D902882311F084E007C08091E30024
:1045E00087FD02C081E001C083E08093DD020E946C
:1045F000CB1E8091E10083FF29C08091E20083FF00
:1046000025C08091E100877F8093E10082E0809364
:10461000DD021092D9028091E1008E7F8093E1004B
:104620008091E2008E7F8093E2008091E2008061C1
:104630008093E20042E060E080E00E94632180918C
:10464000F00088608093F0000E94C91EFF91EF91F6
:10465000BF91AF919F918F917F916F915F914F919A
:104660003F912F910F900FBE0F901F9018951F92A2
:104670000F920FB60F9211242F933F934F935F9396
:104680006F937F938F939F93AF93BF93CF93DF935A
:10469000EF93FF93C091E900CF708091EC00D82F89
:1046A000D17080FDD0E81092E9008091F000877F02
:1046B0008093F00078940E947B231092E90080910F
:1046C000F00088608093F000CD2BCF70C093E9009C
:1046D000FF91EF91DF91CF91BF91AF919F918F911A
:1046E0007F916F915F914F913F912F910F900FBEEE
:1046F0000F901F9018951F93CF93DF93CDB7DEB720
:10470000AA970FB6F894DEBF0FBECDBFEEEDF2E074
:104710008091F100819322E0E63EF207C9F70E9402
:10472000D71E8091E80083FF2EC18091DE02909118
:10473000DF02492F50E04A30510508F024C1FA0148
:10474000EC57FF4F0C946B25803821F0823809F02C
:104750001AC108C08091DA029091DB02992389F096
:1047600082600FC08091E2028F70873008F00BC129
:104770008093E9008091EB0085FB882780F91092F7
:10478000E9009091E800977F9093E8008093F10012
:104790001092F100D1C0282F2D7F09F0F4C088239A
:1047A00019F0823061F0EFC08091E002813009F0B1
:1047B000EAC0933009F080E08093DB022EC0809144
:1047C000E00281112AC08091E2028F702FEF280F42
:1047D000263008F0D8C08093E9002091EB0020FF3C
:1047E0001CC0933021F48091EB00806214C0909142
:1047F000EB0090619093EB0021E030E0A90102C052
:10480000440F551F8A95E2F74093EA001092EA00A0
:104810008091EB0088608093EB001092E90080911A
:10482000E800877F8093E8000E949821ACC0811146
:10483000AAC01091E0021F778091E3008078812B5D
:104840008093E3008091E800877F8093E8000E94D6
:1048500098218091E80080FFFCCF8091E300806880
:104860008093E300111102C082E001C083E08093D5
:10487000DD0289C08058823008F085C08091E00256
:104880009091E1028C3D53E0950779F583E08A83AE
:104890008AE289834FB7F894DE01139620E03EE068
:1048A00051E2E32FF0E050935700E49120FF03C062
:1048B000E295EF703F5FEF708E2F90E0EA3010F0DE
:1048C000C79601C0C0968D939D932F5F243149F701
:1048D0004FBF8091E800877F8093E8006AE270E034
:1048E000CE0101960E94A42016C06091E202709150
:1048F000E302AE014F5F5F4F0E94D31FBC01892BC3
:1049000009F441C09091E800977F9093E800898175
:104910009A810E9402218091E8008B778093E800C1
:1049200032C0803881F58091E800877F8093E8006D
:104930008091D9028093F1008091E8008E7772CF48
:10494000811121C08091E0029091E10299270297A4
:10495000D4F48091E800877F8093E8008091E002A2
:104960008093D9020E9498218091D902811106C0BA
:104970008091E30087FD02C081E001C084E0809364
:10498000DD020E94CD1E8091E80083FF0AC0809165
:10499000E800877F8093E8008091EB00806280933D
:1049A000EB00AA960FB6F894DEBF0FBECDBFDF9125
:1049B000CF911F9108950895CF938091DD028823B0
:1049C000A1F0C091E900CF709091EC00892F817027
:1049D00090FD80E8C82B1092E9008091E80083FDEB
:1049E0000E947B23CF70C093E900CF910895DB0133
:1049F0008F939F930E948025BF91AF91A29F800DBE
:104A0000911DA39F900DB29F900D11240895991BA5
:104A100079E004C0991F961708F0961B881F7A95B5
:104A2000C9F78095089587FB082E062687FD819596
:104A300067FD61950E9407250EF4919507FC81950D
:104A40000895AA1BBB1B51E107C0AA1FBB1FA617D5
:104A5000B70710F0A61BB70B881F991F5A95A9F727
:104A600080959095BC01CD01089597FB072E16F413
:104A7000009407D077FD09D00E94212507FC05D0BE
:104A80003EF4909581959F4F0895709561957F4F65
:104A90000895A1E21A2EAA1BBB1BFD010DC0AA1F7F
:104AA000BB1FEE1FFF1FA217B307E407F50720F097
:104AB000A21BB30BE40BF50B661F771F881F991F12
:104AC0001A9469F760957095809590959B01AC015B
:104AD000BD01CF010895EE0FFF1F0590F491E02D69
:104AE0000994A29FB001B39FC001A39F700D811DC7
:104AF0001124911DB29F700D811D1124911D0895E7
:104B00000E947125A59F900DB49F900DA49F800DCC
:104B1000911D112408958F929F92AF92BF92CF92D0
:104B2000DF92EF92FF92CF93DF93EC01688179815E
:104B30008A819B81611571058105910521F464E2EB
:104B400079ED8BE597E02DE133EF41E050E00E94F5
:104B50003C2649015A019B01AC01A7EAB1E40E943D
:104B600080256B017C01ACEEB4EFA50194010E949D
:104B70005E26DC01CB018C0D9D1DAE1DBF1DB7FF58
:104B800003C00197A109B04888839983AA83BB8396
:104B90009F77DF91CF91FF90EF90DF90CF90BF9004
:104BA000AF909F908F9008950E948B25089580E08C
:104BB00091E00E948B250895A0E0B0E08093000171
:104BC00090930101A0930201B09303010895FC01A9
:104BD0004150504030F001900616D1F73197CF0187
:104BE0000895882799270895F999FECF92BD81BD30
:104BF000F89A992780B50895A6E1B0E044E050E026
:104C00000C942E26A8E1B0E042E050E00C942E2651
:104C1000262FF999FECF92BD81BDF89A019700B475
:104C2000021639F01FBA20BD0FB6F894FA9AF99A15
:104C30000FBE08950396272F0E9409260E9408267A
:104C4000252F0E940926242F0C9409260196272F30
:104C50000E9409260C940826DC01CB01FC01F9997D
:104C6000FECF06C0F2BDE1BDF89A319600B40D92B8
:104C700041505040B8F70895052E97FB1EF400945C
:104C80000E94532657FD07D00E94492507FC03D0F8
:104C90004EF40C94532650954095309521953F4FF6
:104CA0004F4F5F4F089590958095709561957F4F18
:104CB0008F4F9F4F0895B7FF0C9480250E94802549
:0A4CC000821B930B0895F894FFCFB8
:104CCA00010000000102000C000C0C01191A1B1C47
:104CDA001D1E1F2021227F02381E851E3B1E811E9B
:104CEA006F1E01E200E900EA00B500B600B700CD88
:104CFA00008301CC008A019201940121022302243B
:104D0A00022502260227022A02B300B4006F0070AD
:104D1A0000818283909134979694303132F0F1F485
:104D2A003592959300010202020206060609090954
:104D3A000909090F0F0F0F0F0F1515151819191952
:104D4A00191919191919192324252525252525E2A3
:104D5A0000E900EA00B500B600B700CD008301CC37
:104D6A00008A0192019401210223022402250226CB
:104D7A000227022A02B300B4006F00700081828306
:00000001FF
